{
  "contractName": "Booking",
  "abi": [
    {
      "inputs": [],
      "stateMutability": "nonpayable",
      "type": "constructor"
    },
    {
      "inputs": [
        {
          "internalType": "uint256",
          "name": "",
          "type": "uint256"
        }
      ],
      "name": "bookings",
      "outputs": [
        {
          "internalType": "address",
          "name": "",
          "type": "address"
        }
      ],
      "stateMutability": "view",
      "type": "function",
      "constant": true
    },
    {
      "inputs": [
        {
          "internalType": "uint256",
          "name": "propertyId",
          "type": "uint256"
        }
      ],
      "name": "book",
      "outputs": [
        {
          "internalType": "address[8]",
          "name": "",
          "type": "address[8]"
        }
      ],
      "stateMutability": "payable",
      "type": "function",
      "payable": true
    },
    {
      "inputs": [],
      "name": "getBookings",
      "outputs": [
        {
          "internalType": "address[8]",
          "name": "",
          "type": "address[8]"
        }
      ],
      "stateMutability": "view",
      "type": "function",
      "constant": true
    }
  ],
  "bytecode": "0x608060405234801561001057600080fd5b5033600f60006101000a81548173ffffffffffffffffffffffffffffffffffffffff021916908373ffffffffffffffffffffffffffffffffffffffff1602179055506104f6806100616000396000f3fe6080604052600436106100345760003560e01c80631116fd04146100395780631dab301e14610069578063955c8420146100a6575b600080fd5b610053600480360381019061004e9190610341565b6100d1565b604051610060919061044b565b60405180910390f35b34801561007557600080fd5b50610090600480360381019061008b9190610341565b61022c565b60405161009d9190610476565b60405180910390f35b3480156100b257600080fd5b506100bb610262565b6040516100c8919061044b565b60405180910390f35b6100d96102e3565b600082101580156100eb575060078211155b6100f457600080fd5b336000836008811061010957610108610491565b5b0160006101000a81548173ffffffffffffffffffffffffffffffffffffffff021916908373ffffffffffffffffffffffffffffffffffffffff160217905550600f60009054906101000a900473ffffffffffffffffffffffffffffffffffffffff1673ffffffffffffffffffffffffffffffffffffffff166108fc349081150290604051600060405180830381858888f193505050501580156101b0573d6000803e3d6000fd5b506000600880602002604051908101604052809291908260088015610220576020028201915b8160009054906101000a900473ffffffffffffffffffffffffffffffffffffffff1673ffffffffffffffffffffffffffffffffffffffff16815260200190600101908083116101d6575b50505050509050919050565b6000816008811061023c57600080fd5b016000915054906101000a900473ffffffffffffffffffffffffffffffffffffffff1681565b61026a6102e3565b60006008806020026040519081016040528092919082600880156102d9576020028201915b8160009054906101000a900473ffffffffffffffffffffffffffffffffffffffff1673ffffffffffffffffffffffffffffffffffffffff168152602001906001019080831161028f575b5050505050905090565b604051806101000160405280600890602082028036833780820191505090505090565b600080fd5b6000819050919050565b61031e8161030b565b811461032957600080fd5b50565b60008135905061033b81610315565b92915050565b60006020828403121561035757610356610306565b5b60006103658482850161032c565b91505092915050565b600060089050919050565b600081905092915050565b6000819050919050565b600073ffffffffffffffffffffffffffffffffffffffff82169050919050565b60006103b98261038e565b9050919050565b6103c9816103ae565b82525050565b60006103db83836103c0565b60208301905092915050565b6000602082019050919050565b6103fd8161036e565b6104078184610379565b925061041282610384565b8060005b8381101561044357815161042a87826103cf565b9650610435836103e7565b925050600181019050610416565b505050505050565b60006101008201905061046160008301846103f4565b92915050565b610470816103ae565b82525050565b600060208201905061048b6000830184610467565b92915050565b7f4e487b7100000000000000000000000000000000000000000000000000000000600052603260045260246000fdfea2646970667358221220978433ec3ff90a75cfa8f93dfec5fbf714730f6747e539ba0c9ff6369fb0314c64736f6c63430008110033",
  "immutableReferences": {},
  "source": "// SPDX-License-Identifier: GPL-3.0\r\npragma solidity >=0.7.0 <=0.9.0;\r\n\r\ncontract Booking {\r\n  address[8] public bookings;\r\n  uint256 revenue;\r\n  uint256 capacity;\r\n  uint256 rate;\r\n  string name;\r\n  string propertyType;\r\n  string location;\r\n  address booker;\r\n  address payable receiveValue;\r\n\r\n  constructor(){\r\n    receiveValue = payable(msg.sender);\r\n  }\r\n\r\n  //book a property by adding the address of the booker to the bookings array\r\n  function book(uint propertyId) payable public returns(address[8] memory){\r\n    require(propertyId >= 0 && propertyId <= 7);\r\n    bookings[propertyId] = msg.sender;\r\n\r\n    //pay contract from buyer's account\r\n    receiveValue.transfer(msg.value);\r\n    return bookings;\r\n  }\r\n\r\n  //retrieve booking status of all properties\r\n  // function updateAddress(uint propertyId) payable public returns (address[8] memory) {\r\n  //       bookings[propertyId] = msg.sender;\r\n  //       return bookings;\r\n  // }\r\n\r\n\r\n  //retrieve booking status of all properties\r\n  function getBookings() public view returns (address[8] memory) {\r\n    return bookings;\r\n  }\r\n}\r\n",
  "sourcePath": "C:\\Users\\Rishi Vashisht\\Desktop\\BITS\\3-1\\Blockchain\\BlockBNB\\contracts\\Booking.sol",
  "compiler": {
    "name": "solc",
    "version": "0.8.17+commit.8df45f5f.Emscripten.clang"
  },
  "schemaVersion": "3.4.10",
  "updatedAt": "2022-12-03T13:33:50.307Z",
  "networkType": "ethereum",
  "devdoc": {
    "kind": "dev",
    "methods": {},
    "version": 1
  },
  "userdoc": {
    "kind": "user",
    "methods": {},
    "version": 1
  }
}